:020000040800F2
:10000000780600208901000891010008930100088A
:100010009501000897010008990100080000000000
:100020000000000000000000000000009B0100082C
:100030009D010008000000009F010008A1010008C8
:10004000A3010008A3010008A3010008A301000800
:10005000A3010008A3010008A3010008A3010008F0
:10006000A3010008A3010008A3010008450200083D
:100070006502000885020008A5020008C502000804
:10008000E502000805030008A3010008A301000819
:10009000A3010008A3010008A3010008A3010008B0
:1000A000A3010008A3010008A3010008A3010008A0
:1000B000A3010008A3010008A3010008A301000890
:1000C000A3010008A3010008A3010008A301000880
:1000D000A3010008A3010008A3010008A301000870
:1000E000A3010008A3010008A301000800F002F822
:1000F00000F03AF80AA090E8000C82448344AAF188
:100100000107DA4501D100F02FF8AFF2090EBAE885
:100110000F0013F0010F18BFFB1A43F0010318473B
:100120005C0600007C060000103A24BF78C878C145
:10013000FAD8520724BF30C830C144BF04680C60ED
:10014000704700000023002400250026103A28BF35
:1001500078C1FBD8520728BF30C148BF0B60704739
:100160001FB51FBD10B510BD00F031F81146FFF7E7
:10017000F7FF00F0E9FA00F04FF803B4FFF7F2FFE1
:1001800003BC00F057F800000948804709480047C1
:10019000FEE7FEE7FEE7FEE7FEE7FEE7FEE7FEE737
:1001A000FEE7FEE704480549054A064B7047000094
:1001B0007D060008ED000008780000207806002089
:1001C000780200207802002070477047704775461B
:1001D00000F02CF8AE4605006946534620F00700B3
:1001E000854618B020B5FFF7DDFFBDE820404FF091
:1001F00000064FF000074FF000084FF0000B21F011
:100200000701AC46ACE8C009ACE8C009ACE8C009DD
:10021000ACE8C0098D46704710B50446AFF30080C6
:100220002046BDE81040FFF7A8BF00000048704717
:100230001800002001491820ABBEFEE7260002008E
:100240007047704710B50548006800F00F04034878
:1002500044602046FFF7F5FF10BD0000000002409B
:100260007047000010B505480068C0F30314200172
:10027000024948602046FFF7F3FF10BD000002402E
:100280007047000010B505480068C0F30324200241
:10029000024948602046FFF7F3FF10BD000002400E
:1002A0007047000010B505480068C0F30334200310
:1002B000024948602046FFF7F3FF10BD00000240EE
:1002C0007047000010B505480068C0F303442004DF
:1002D000024948602046FFF7F3FF10BD00000240CE
:1002E0007047000010B505480068C0F303542005AE
:1002F000024948602046FFF7F3FF10BD00000240AE
:100300007047000010B505480068C0F3036420067C
:10031000024948602046FFF7F3FF10BD000002408D
:100320002DE9F0410246002500260020002300248C
:10033000002791F803C00CF00F0591F803C00CF0F2
:10034000100CBCF1000F03D091F802C04CEA050577
:1003500091F800C0BCF1000F31D0146800202BE0F0
:100360004FF0010C0CFA00F3B1F800C00CEA0306E0
:100370009E4220D183004FF00F0C0CFA03F7BC43D0
:1003800005FA03FC4CEA040491F803C0BCF1280F01
:1003900006D14FF0010C0CFA00FCC2F814C00AE0C0
:1003A00091F803C0BCF1480F05D14FF0010C0CFAD5
:1003B00000FCC2F810C0401C0828D1D31460B1F86A
:1003C00000C0BCF1FF0F34DD546800202EE000F1C6
:1003D000080C4FF0010808FA0CF3B1F800C00CEA61
:1003E00003069E4221D183004FF00F0C0CFA03F755
:1003F000BC4305FA03FC4CEA040491F803C0BCF1C9
:10040000280F05D100F1080C08FA0CF8C2F8148086
:1004100091F803C0BCF1480F07D100F1080C4FF070
:10042000010808FA0CF8C2F81080401C0828CED346
:100430005460BDE8F0810000F0B50A4600230024B6
:100440000021002500F00046B6F1004F02D11D4EFC
:10045000F16901E01B4E7168C0F3034583B200F4FB
:100460004016B6F5401F08D121F07061154E766830
:1004700026F07066134F7E6012E000F48016B6F529
:10048000801F06D1032606FA05F4A14341F07061EE
:1004900006E0460D360103FA06F6B14341F07061FD
:1004A00022B1460D360103FA06F6314300F000464C
:1004B000B6F1004F02D1034EF16101E0014E7160CF
:1004C000F0BD0000000001404161704701617047CC
:1004D00029B1064A92690243044B9A6104E0034A37
:1004E00092698243014B9A617047000000100240FC
:1004F00010B500F001F810BD0CB50020019000907F
:100500003348006840F480303149086000BF30480B
:10051000006800F4003000900198401C01900098A1
:1005200018B90198B0F5A06FF1D12948006800F41E
:10053000003010B10120009001E0002000900098F0
:10054000012843D12348006840F010002149086089
:100550000846006820F0030008600846006840F084
:10056000020008601A484068194948600846406817
:1005700048600846406840F480604860084640682B
:1005800020F47C1048600846406840F4E810486059
:100590000846006840F08070086000BF0C480068A2
:1005A00000F000700028F9D00948406820F00300EE
:1005B000074948600846406840F00200486000BFB4
:1005C0000348406800F00C000828F9D10CBD000079
:1005D000001002400020024010B50021002000223F
:1005E000214B5B6803F00C0121B1042906D00829D6
:1005F00028D107E01D4B1E4C236027E01B4B1C4CF1
:10060000236023E0184B5B6803F47010164B5B68A3
:1006100003F48032022303EB904022B9154B43438D
:10062000134C23600DE0104B5B6803F4003323B1DF
:10063000104B43430E4C236003E00C4B43430C4CE4
:10064000236003E0094B0A4C236000BF00BF064B48
:100650005B68C3F30313084CE15C054B1B68CB409C
:10066000034C236010BD00000010024000127A000D
:100670000400002000093D000800002010B51348C8
:10068000006840F0010011490860084640681049C0
:1006900008400E494860084600680E4908400B496A
:1006A00008600846006820F480200860084640681A
:1006B00020F4FE0048604FF41F008860FFF718FF29
:1006C0004FF000600449086010BD000000100240B7
:1006D0000000FFF8FFFFF6FE08ED00E04FF4616157
:1006E0004143064A116000BF04490A680968491E6F
:1006F000024B1960002AF7D170470000000000206B
:1007000008B501210420FFF7E3FE01210846FFF7A9
:10071000DFFE01210A48FFF78FFE10208DF803004D
:1007200048F21000ADF8000001208DF80200694683
:100730000448FFF7F5FD10210248FFF7C7FE08BD8A
:100740000002300000080140FFF746FFFFF796FF68
:10075000FFF7D6FF0FE04FF400410748FFF7B6FE62
:100760006420FFF7BBFF4FF400410348FFF7ACFEE6
:100770006420FFF7B3FFEEE7000801409C07000884
:10078000000000201800000028010008B40700083D
:10079000180000206006000044010008000000006E
:1007A00000A24A040000000000000000010203044F
:0407B0000607080927
:040000050800018965
:00000001FF
